{
  "_format": "hh-sol-artifact-1",
  "contractName": "Mapping",
  "sourceName": "contracts/mapping.sol",
  "abi": [
    {
      "anonymous": false,
      "inputs": [
        {
          "indexed": false,
          "internalType": "address",
          "name": "contractAddress",
          "type": "address"
        }
      ],
      "name": "Map",
      "type": "event"
    },
    {
      "inputs": [
        {
          "internalType": "string",
          "name": "_id",
          "type": "string"
        }
      ],
      "name": "getId",
      "outputs": [
        {
          "internalType": "address",
          "name": "",
          "type": "address"
        }
      ],
      "stateMutability": "nonpayable",
      "type": "function"
    },
    {
      "inputs": [
        {
          "internalType": "string",
          "name": "_id",
          "type": "string"
        }
      ],
      "name": "getIdview",
      "outputs": [
        {
          "internalType": "address",
          "name": "",
          "type": "address"
        }
      ],
      "stateMutability": "view",
      "type": "function"
    },
    {
      "inputs": [
        {
          "internalType": "string",
          "name": "",
          "type": "string"
        }
      ],
      "name": "myMap",
      "outputs": [
        {
          "internalType": "address",
          "name": "",
          "type": "address"
        }
      ],
      "stateMutability": "view",
      "type": "function"
    },
    {
      "inputs": [
        {
          "internalType": "string",
          "name": "_id",
          "type": "string"
        }
      ],
      "name": "removeId",
      "outputs": [],
      "stateMutability": "nonpayable",
      "type": "function"
    },
    {
      "inputs": [
        {
          "internalType": "string",
          "name": "_id",
          "type": "string"
        },
        {
          "internalType": "address",
          "name": "_addr",
          "type": "address"
        }
      ],
      "name": "setId",
      "outputs": [],
      "stateMutability": "nonpayable",
      "type": "function"
    }
  ],
  "bytecode": "0x608060405234801561001057600080fd5b5061079c806100206000396000f3fe608060405234801561001057600080fd5b50600436106100575760003560e01c80636630b2ae1461005c5780636c88e56d1461008c578063bee51f3b146100a8578063ebd746c9146100d8578063ff3a0ad0146100f4575b600080fd5b61007660048036038101906100719190610467565b610124565b604051610083919061059c565b60405180910390f35b6100a660048036038101906100a191906104b0565b610175565b005b6100c260048036038101906100bd9190610467565b6101d6565b6040516100cf919061059c565b60405180910390f35b6100f260048036038101906100ed9190610467565b610293565b005b61010e60048036038101906101099190610467565b6102d7565b60405161011b919061059c565b60405180910390f35b600061012f82610320565b60008260405161013f9190610585565b908152602001604051809103902060009054906101000a900473ffffffffffffffffffffffffffffffffffffffff169050919050565b806000836040516101869190610585565b908152602001604051809103902060006101000a81548173ffffffffffffffffffffffffffffffffffffffff021916908373ffffffffffffffffffffffffffffffffffffffff1602179055505050565b60007fc483b71cb91a8ae5b1f275635dce163bf3e07b25d4a368b76c039f86b9196c3e6000836040516102099190610585565b908152602001604051809103902060009054906101000a900473ffffffffffffffffffffffffffffffffffffffff16604051610245919061059c565b60405180910390a160008260405161025d9190610585565b908152602001604051809103902060009054906101000a900473ffffffffffffffffffffffffffffffffffffffff169050919050565b6000816040516102a39190610585565b908152602001604051809103902060006101000a81549073ffffffffffffffffffffffffffffffffffffffff021916905550565b6000818051602081018201805184825260208301602085012081835280955050505050506000915054906101000a900473ffffffffffffffffffffffffffffffffffffffff1681565b6103b68160405160240161033491906105b7565b6040516020818303038152906040527f41304fac000000000000000000000000000000000000000000000000000000007bffffffffffffffffffffffffffffffffffffffffffffffffffffffff19166020820180517bffffffffffffffffffffffffffffffffffffffffffffffffffffffff83818316178352505050506103b9565b50565b60008151905060006a636f6e736f6c652e6c6f679050602083016000808483855afa5050505050565b60006103f56103f0846105fe565b6105d9565b9050828152602081018484840111156104115761041061072f565b5b61041c848285610688565b509392505050565b6000813590506104338161074f565b92915050565b600082601f83011261044e5761044d61072a565b5b813561045e8482602086016103e2565b91505092915050565b60006020828403121561047d5761047c610739565b5b600082013567ffffffffffffffff81111561049b5761049a610734565b5b6104a784828501610439565b91505092915050565b600080604083850312156104c7576104c6610739565b5b600083013567ffffffffffffffff8111156104e5576104e4610734565b5b6104f185828601610439565b925050602061050285828601610424565b9150509250929050565b61051581610656565b82525050565b60006105268261062f565b610530818561063a565b9350610540818560208601610697565b6105498161073e565b840191505092915050565b600061055f8261062f565b610569818561064b565b9350610579818560208601610697565b80840191505092915050565b60006105918284610554565b915081905092915050565b60006020820190506105b1600083018461050c565b92915050565b600060208201905081810360008301526105d1818461051b565b905092915050565b60006105e36105f4565b90506105ef82826106ca565b919050565b6000604051905090565b600067ffffffffffffffff821115610619576106186106fb565b5b6106228261073e565b9050602081019050919050565b600081519050919050565b600082825260208201905092915050565b600081905092915050565b600061066182610668565b9050919050565b600073ffffffffffffffffffffffffffffffffffffffff82169050919050565b82818337600083830152505050565b60005b838110156106b557808201518184015260208101905061069a565b838111156106c4576000848401525b50505050565b6106d38261073e565b810181811067ffffffffffffffff821117156106f2576106f16106fb565b5b80604052505050565b7f4e487b7100000000000000000000000000000000000000000000000000000000600052604160045260246000fd5b600080fd5b600080fd5b600080fd5b600080fd5b6000601f19601f8301169050919050565b61075881610656565b811461076357600080fd5b5056fea26469706673582212203a5f4e0801ef8c9c6763abf17b71dcc1c4d1ae3aaafb6fe8267c975fda07510464736f6c63430008070033",
  "linkReferences": {},
  "deployedLinkReferences": {}
}