{
  "_format": "hh-sol-artifact-1",
  "contractName": "FirebaseSystem",
  "sourceName": "contracts/firebase.sol",
  "abi": [
    {
      "inputs": [
        {
          "internalType": "uint256",
          "name": "_paymentStatus",
          "type": "uint256"
        },
        {
          "internalType": "string",
          "name": "_date",
          "type": "string"
        },
        {
          "internalType": "address",
          "name": "_addr",
          "type": "address"
        }
      ],
      "name": "checkForSpecificAddress",
      "outputs": [
        {
          "internalType": "address",
          "name": "",
          "type": "address"
        }
      ],
      "stateMutability": "view",
      "type": "function"
    },
    {
      "inputs": [
        {
          "internalType": "uint256",
          "name": "_oldStatus",
          "type": "uint256"
        },
        {
          "internalType": "string",
          "name": "_date",
          "type": "string"
        },
        {
          "internalType": "address",
          "name": "_addr",
          "type": "address"
        }
      ],
      "name": "removeAddressToChangeAddress",
      "outputs": [],
      "stateMutability": "nonpayable",
      "type": "function"
    },
    {
      "inputs": [
        {
          "internalType": "uint256",
          "name": "_paymentStatus",
          "type": "uint256"
        },
        {
          "internalType": "string",
          "name": "_date",
          "type": "string"
        }
      ],
      "name": "retrieveAddress",
      "outputs": [
        {
          "internalType": "address[]",
          "name": "",
          "type": "address[]"
        }
      ],
      "stateMutability": "view",
      "type": "function"
    },
    {
      "inputs": [
        {
          "internalType": "uint256",
          "name": "_paymentStatus",
          "type": "uint256"
        },
        {
          "internalType": "string",
          "name": "_date",
          "type": "string"
        },
        {
          "internalType": "address",
          "name": "_addr",
          "type": "address"
        }
      ],
      "name": "storeAddressByPaymentStatus",
      "outputs": [],
      "stateMutability": "nonpayable",
      "type": "function"
    }
  ],
  "bytecode": "0x608060405234801561001057600080fd5b50610b52806100206000396000f3fe608060405234801561001057600080fd5b506004361061004c5760003560e01c806344f563fe14610051578063563ac793146100815780639c7008c2146100b1578063a712fdd1146100cd575b600080fd5b61006b600480360381019061006691906106cf565b6100e9565b6040516100789190610858565b60405180910390f35b61009b6004803603810190610096919061066f565b6101f1565b6040516100a89190610873565b60405180910390f35b6100cb60048036038101906100c691906106cf565b61038a565b005b6100e760048036038101906100e291906106cf565b61041e565b005b600080600090505b600080868152602001908152602001600020846040516101119190610841565b9081526020016040518091039020805490508110156101e4576000808681526020019081526020016000208460405161014a9190610841565b9081526020016040518091039020818154811061016a57610169610a61565b5b9060005260206000200160009054906101000a900473ffffffffffffffffffffffffffffffffffffffff1673ffffffffffffffffffffffffffffffffffffffff168373ffffffffffffffffffffffffffffffffffffffff1614156101d157829150506101ea565b80806101dc906109e9565b9150506100f1565b50600090505b9392505050565b606060008060008681526020019081526020016000208484604051610217929190610828565b90815260200160405180910390208054905067ffffffffffffffff81111561024257610241610a90565b5b6040519080825280602002602001820160405280156102705781602001602082028036833780820191505090505b50905060005b6000808781526020019081526020016000208585604051610298929190610828565b90815260200160405180910390208054905081101561037e5760008087815260200190815260200160002085856040516102d3929190610828565b908152602001604051809103902081815481106102f3576102f2610a61565b5b9060005260206000200160009054906101000a900473ffffffffffffffffffffffffffffffffffffffff1682828151811061033157610330610a61565b5b602002602001019073ffffffffffffffffffffffffffffffffffffffff16908173ffffffffffffffffffffffffffffffffffffffff16815250508080610376906109e9565b915050610276565b50809150509392505050565b600080848152602001908152602001600020826040516103aa9190610841565b9081526020016040518091039020819080600181540180825580915050600190039060005260206000200160009091909190916101000a81548173ffffffffffffffffffffffffffffffffffffffff021916908373ffffffffffffffffffffffffffffffffffffffff160217905550505050565b60005b600080858152602001908152602001600020836040516104419190610841565b908152602001604051809103902080549050811015610579576000808581526020019081526020016000208360405161047a9190610841565b9081526020016040518091039020818154811061049a57610499610a61565b5b9060005260206000200160009054906101000a900473ffffffffffffffffffffffffffffffffffffffff1673ffffffffffffffffffffffffffffffffffffffff168273ffffffffffffffffffffffffffffffffffffffff16141561056657600080858152602001908152602001600020836040516105189190610841565b9081526020016040518091039020818154811061053857610537610a61565b5b9060005260206000200160006101000a81549073ffffffffffffffffffffffffffffffffffffffff02191690555b8080610571906109e9565b915050610421565b50505050565b600061059261058d846108ba565b610895565b9050828152602081018484840111156105ae576105ad610ace565b5b6105b9848285610976565b509392505050565b6000813590506105d081610aee565b92915050565b60008083601f8401126105ec576105eb610ac4565b5b8235905067ffffffffffffffff81111561060957610608610abf565b5b60208301915083600182028301111561062557610624610ac9565b5b9250929050565b600082601f83011261064157610640610ac4565b5b813561065184826020860161057f565b91505092915050565b60008135905061066981610b05565b92915050565b60008060006040848603121561068857610687610ad8565b5b60006106968682870161065a565b935050602084013567ffffffffffffffff8111156106b7576106b6610ad3565b5b6106c3868287016105d6565b92509250509250925092565b6000806000606084860312156106e8576106e7610ad8565b5b60006106f68682870161065a565b935050602084013567ffffffffffffffff81111561071757610716610ad3565b5b6107238682870161062c565b9250506040610734868287016105c1565b9150509250925092565b600061074a8383610756565b60208301905092915050565b61075f8161093a565b82525050565b61076e8161093a565b82525050565b600061077f826108fb565b610789818561091e565b9350610794836108eb565b8060005b838110156107c55781516107ac888261073e565b97506107b783610911565b925050600181019050610798565b5085935050505092915050565b60006107de838561092f565b93506107eb838584610976565b82840190509392505050565b600061080282610906565b61080c818561092f565b935061081c818560208601610985565b80840191505092915050565b60006108358284866107d2565b91508190509392505050565b600061084d82846107f7565b915081905092915050565b600060208201905061086d6000830184610765565b92915050565b6000602082019050818103600083015261088d8184610774565b905092915050565b600061089f6108b0565b90506108ab82826109b8565b919050565b6000604051905090565b600067ffffffffffffffff8211156108d5576108d4610a90565b5b6108de82610add565b9050602081019050919050565b6000819050602082019050919050565b600081519050919050565b600081519050919050565b6000602082019050919050565b600082825260208201905092915050565b600081905092915050565b60006109458261094c565b9050919050565b600073ffffffffffffffffffffffffffffffffffffffff82169050919050565b6000819050919050565b82818337600083830152505050565b60005b838110156109a3578082015181840152602081019050610988565b838111156109b2576000848401525b50505050565b6109c182610add565b810181811067ffffffffffffffff821117156109e0576109df610a90565b5b80604052505050565b60006109f48261096c565b91507fffffffffffffffffffffffffffffffffffffffffffffffffffffffffffffffff821415610a2757610a26610a32565b5b600182019050919050565b7f4e487b7100000000000000000000000000000000000000000000000000000000600052601160045260246000fd5b7f4e487b7100000000000000000000000000000000000000000000000000000000600052603260045260246000fd5b7f4e487b7100000000000000000000000000000000000000000000000000000000600052604160045260246000fd5b600080fd5b600080fd5b600080fd5b600080fd5b600080fd5b600080fd5b6000601f19601f8301169050919050565b610af78161093a565b8114610b0257600080fd5b50565b610b0e8161096c565b8114610b1957600080fd5b5056fea2646970667358221220395c601abb1947ef27aa5f12dd2ebf771287396eebe820337fd807323ece5ccf64736f6c63430008070033",
  "linkReferences": {},
  "deployedLinkReferences": {}
}