{
  "_format": "hh-sol-artifact-1",
  "contractName": "PolicySmartContract2",
  "sourceName": "contracts/clientfactory2.sol",
  "abi": [
    {
      "inputs": [
        {
          "internalType": "string",
          "name": "newMessage",
          "type": "string"
        },
        {
          "internalType": "string",
          "name": "_policyID",
          "type": "string"
        },
        {
          "internalType": "string",
          "name": "_duration",
          "type": "string"
        },
        {
          "internalType": "string",
          "name": "_date_of_policy",
          "type": "string"
        },
        {
          "internalType": "string",
          "name": "_phone",
          "type": "string"
        },
        {
          "internalType": "string",
          "name": "_name",
          "type": "string"
        },
        {
          "internalType": "string",
          "name": "_price",
          "type": "string"
        },
        {
          "internalType": "string",
          "name": "_dateNTimeOfTxn",
          "type": "string"
        }
      ],
      "stateMutability": "nonpayable",
      "type": "constructor"
    },
    {
      "anonymous": false,
      "inputs": [
        {
          "indexed": false,
          "internalType": "string",
          "name": "newMessage",
          "type": "string"
        },
        {
          "indexed": false,
          "internalType": "string",
          "name": "policyID",
          "type": "string"
        },
        {
          "indexed": false,
          "internalType": "string",
          "name": "duration",
          "type": "string"
        },
        {
          "indexed": false,
          "internalType": "string",
          "name": "date_of_policy",
          "type": "string"
        },
        {
          "indexed": false,
          "internalType": "string",
          "name": "phone",
          "type": "string"
        },
        {
          "indexed": false,
          "internalType": "string",
          "name": "name",
          "type": "string"
        },
        {
          "indexed": false,
          "internalType": "string",
          "name": "price",
          "type": "string"
        },
        {
          "indexed": false,
          "internalType": "string",
          "name": "dateNTimeOfTxn",
          "type": "string"
        }
      ],
      "name": "_updatedMessages",
      "type": "event"
    },
    {
      "inputs": [],
      "name": "dateNTimeOfTxn",
      "outputs": [
        {
          "internalType": "string",
          "name": "",
          "type": "string"
        }
      ],
      "stateMutability": "view",
      "type": "function"
    },
    {
      "inputs": [],
      "name": "date_of_policy",
      "outputs": [
        {
          "internalType": "string",
          "name": "",
          "type": "string"
        }
      ],
      "stateMutability": "view",
      "type": "function"
    },
    {
      "inputs": [],
      "name": "duration",
      "outputs": [
        {
          "internalType": "string",
          "name": "",
          "type": "string"
        }
      ],
      "stateMutability": "view",
      "type": "function"
    },
    {
      "inputs": [],
      "name": "getDate_of_policy",
      "outputs": [
        {
          "internalType": "string",
          "name": "",
          "type": "string"
        }
      ],
      "stateMutability": "view",
      "type": "function"
    },
    {
      "inputs": [],
      "name": "getDuration",
      "outputs": [
        {
          "internalType": "string",
          "name": "",
          "type": "string"
        }
      ],
      "stateMutability": "view",
      "type": "function"
    },
    {
      "inputs": [],
      "name": "getEmailAddress",
      "outputs": [
        {
          "internalType": "string",
          "name": "",
          "type": "string"
        }
      ],
      "stateMutability": "view",
      "type": "function"
    },
    {
      "inputs": [],
      "name": "getName",
      "outputs": [
        {
          "internalType": "string",
          "name": "",
          "type": "string"
        }
      ],
      "stateMutability": "view",
      "type": "function"
    },
    {
      "inputs": [],
      "name": "getPhone",
      "outputs": [
        {
          "internalType": "string",
          "name": "",
          "type": "string"
        }
      ],
      "stateMutability": "view",
      "type": "function"
    },
    {
      "inputs": [],
      "name": "getPrice",
      "outputs": [
        {
          "internalType": "string",
          "name": "",
          "type": "string"
        }
      ],
      "stateMutability": "view",
      "type": "function"
    },
    {
      "inputs": [],
      "name": "getdateNTimeOfTxn",
      "outputs": [
        {
          "internalType": "string",
          "name": "",
          "type": "string"
        }
      ],
      "stateMutability": "view",
      "type": "function"
    },
    {
      "inputs": [],
      "name": "getpolicyID",
      "outputs": [
        {
          "internalType": "string",
          "name": "",
          "type": "string"
        }
      ],
      "stateMutability": "view",
      "type": "function"
    },
    {
      "inputs": [],
      "name": "message",
      "outputs": [
        {
          "internalType": "string",
          "name": "",
          "type": "string"
        }
      ],
      "stateMutability": "view",
      "type": "function"
    },
    {
      "inputs": [],
      "name": "name",
      "outputs": [
        {
          "internalType": "string",
          "name": "",
          "type": "string"
        }
      ],
      "stateMutability": "view",
      "type": "function"
    },
    {
      "inputs": [],
      "name": "phone",
      "outputs": [
        {
          "internalType": "string",
          "name": "",
          "type": "string"
        }
      ],
      "stateMutability": "view",
      "type": "function"
    },
    {
      "inputs": [],
      "name": "policyID",
      "outputs": [
        {
          "internalType": "string",
          "name": "",
          "type": "string"
        }
      ],
      "stateMutability": "view",
      "type": "function"
    },
    {
      "inputs": [],
      "name": "price",
      "outputs": [
        {
          "internalType": "string",
          "name": "",
          "type": "string"
        }
      ],
      "stateMutability": "view",
      "type": "function"
    }
  ],
  "bytecode": "0x60806040523480156200001157600080fd5b50604051620012c7380380620012c783398181016040528101906200003791906200023b565b87600090805190602001906200004f9291906200010d565b508660019080519060200190620000689291906200010d565b508560029080519060200190620000819291906200010d565b5084600390805190602001906200009a9291906200010d565b508360049080519060200190620000b39291906200010d565b508260059080519060200190620000cc9291906200010d565b508160069080519060200190620000e59291906200010d565b508060079080519060200190620000fe9291906200010d565b50505050505050505062000580565b8280546200011b9062000491565b90600052602060002090601f0160209004810192826200013f57600085556200018b565b82601f106200015a57805160ff19168380011785556200018b565b828001600101855582156200018b579182015b828111156200018a5782518255916020019190600101906200016d565b5b5090506200019a91906200019e565b5090565b5b80821115620001b95760008160009055506001016200019f565b5090565b6000620001d4620001ce8462000425565b620003fc565b905082815260208101848484011115620001f357620001f262000560565b5b620002008482856200045b565b509392505050565b600082601f83011262000220576200021f6200055b565b5b815162000232848260208601620001bd565b91505092915050565b600080600080600080600080610100898b0312156200025f576200025e6200056a565b5b600089015167ffffffffffffffff81111562000280576200027f62000565565b5b6200028e8b828c0162000208565b985050602089015167ffffffffffffffff811115620002b257620002b162000565565b5b620002c08b828c0162000208565b975050604089015167ffffffffffffffff811115620002e457620002e362000565565b5b620002f28b828c0162000208565b965050606089015167ffffffffffffffff81111562000316576200031562000565565b5b620003248b828c0162000208565b955050608089015167ffffffffffffffff81111562000348576200034762000565565b5b620003568b828c0162000208565b94505060a089015167ffffffffffffffff8111156200037a576200037962000565565b5b620003888b828c0162000208565b93505060c089015167ffffffffffffffff811115620003ac57620003ab62000565565b5b620003ba8b828c0162000208565b92505060e089015167ffffffffffffffff811115620003de57620003dd62000565565b5b620003ec8b828c0162000208565b9150509295985092959890939650565b6000620004086200041b565b9050620004168282620004c7565b919050565b6000604051905090565b600067ffffffffffffffff8211156200044357620004426200052c565b5b6200044e826200056f565b9050602081019050919050565b60005b838110156200047b5780820151818401526020810190506200045e565b838111156200048b576000848401525b50505050565b60006002820490506001821680620004aa57607f821691505b60208210811415620004c157620004c0620004fd565b5b50919050565b620004d2826200056f565b810181811067ffffffffffffffff82111715620004f457620004f36200052c565b5b80604052505050565b7f4e487b7100000000000000000000000000000000000000000000000000000000600052602260045260246000fd5b7f4e487b7100000000000000000000000000000000000000000000000000000000600052604160045260246000fd5b600080fd5b600080fd5b600080fd5b600080fd5b6000601f19601f8301169050919050565b610d3780620005906000396000f3fe608060405234801561001057600080fd5b50600436106101005760003560e01c806398d5fdca11610097578063c4382fa611610066578063c4382fa61461026d578063c6cf634b1461028b578063e21f37ce146102a9578063f0d3c722146102c757610100565b806398d5fdca146101f5578063a035b1fe14610213578063aa3c542d14610231578063ad2e8c9b1461024f57610100565b806338fa5048116100d357806338fa50481461017d57806352ea67821461019b5780638863bab0146101b95780639284f497146101d757610100565b806306fdde03146101055780630fb5a6b41461012357806317d7de7c1461014157806320bdd61d1461015f575b600080fd5b61010d6102e5565b60405161011a9190610c1e565b60405180910390f35b61012b610373565b6040516101389190610c1e565b60405180910390f35b610149610401565b6040516101569190610c1e565b60405180910390f35b610167610493565b6040516101749190610c1e565b60405180910390f35b610185610525565b6040516101929190610c1e565b60405180910390f35b6101a36105b3565b6040516101b09190610c1e565b60405180910390f35b6101c1610645565b6040516101ce9190610c1e565b60405180910390f35b6101df6106d7565b6040516101ec9190610c1e565b60405180910390f35b6101fd610765565b60405161020a9190610c1e565b60405180910390f35b61021b6107f7565b6040516102289190610c1e565b60405180910390f35b610239610885565b6040516102469190610c1e565b60405180910390f35b610257610913565b6040516102649190610c1e565b60405180910390f35b6102756109a5565b6040516102829190610c1e565b60405180910390f35b610293610a37565b6040516102a09190610c1e565b60405180910390f35b6102b1610ac5565b6040516102be9190610c1e565b60405180910390f35b6102cf610b53565b6040516102dc9190610c1e565b60405180910390f35b600580546102f290610c8f565b80601f016020809104026020016040519081016040528092919081815260200182805461031e90610c8f565b801561036b5780601f106103405761010080835404028352916020019161036b565b820191906000526020600020905b81548152906001019060200180831161034e57829003601f168201915b505050505081565b6002805461038090610c8f565b80601f01602080910402602001604051908101604052809291908181526020018280546103ac90610c8f565b80156103f95780601f106103ce576101008083540402835291602001916103f9565b820191906000526020600020905b8154815290600101906020018083116103dc57829003601f168201915b505050505081565b60606005805461041090610c8f565b80601f016020809104026020016040519081016040528092919081815260200182805461043c90610c8f565b80156104895780601f1061045e57610100808354040283529160200191610489565b820191906000526020600020905b81548152906001019060200180831161046c57829003601f168201915b5050505050905090565b6060600380546104a290610c8f565b80601f01602080910402602001604051908101604052809291908181526020018280546104ce90610c8f565b801561051b5780601f106104f05761010080835404028352916020019161051b565b820191906000526020600020905b8154815290600101906020018083116104fe57829003601f168201915b5050505050905090565b6007805461053290610c8f565b80601f016020809104026020016040519081016040528092919081815260200182805461055e90610c8f565b80156105ab5780601f10610580576101008083540402835291602001916105ab565b820191906000526020600020905b81548152906001019060200180831161058e57829003601f168201915b505050505081565b6060600180546105c290610c8f565b80601f01602080910402602001604051908101604052809291908181526020018280546105ee90610c8f565b801561063b5780601f106106105761010080835404028352916020019161063b565b820191906000526020600020905b81548152906001019060200180831161061e57829003601f168201915b5050505050905090565b60606004805461065490610c8f565b80601f016020809104026020016040519081016040528092919081815260200182805461068090610c8f565b80156106cd5780601f106106a2576101008083540402835291602001916106cd565b820191906000526020600020905b8154815290600101906020018083116106b057829003601f168201915b5050505050905090565b600480546106e490610c8f565b80601f016020809104026020016040519081016040528092919081815260200182805461071090610c8f565b801561075d5780601f106107325761010080835404028352916020019161075d565b820191906000526020600020905b81548152906001019060200180831161074057829003601f168201915b505050505081565b60606006805461077490610c8f565b80601f01602080910402602001604051908101604052809291908181526020018280546107a090610c8f565b80156107ed5780601f106107c2576101008083540402835291602001916107ed565b820191906000526020600020905b8154815290600101906020018083116107d057829003601f168201915b5050505050905090565b6006805461080490610c8f565b80601f016020809104026020016040519081016040528092919081815260200182805461083090610c8f565b801561087d5780601f106108525761010080835404028352916020019161087d565b820191906000526020600020905b81548152906001019060200180831161086057829003601f168201915b505050505081565b6003805461089290610c8f565b80601f01602080910402602001604051908101604052809291908181526020018280546108be90610c8f565b801561090b5780601f106108e05761010080835404028352916020019161090b565b820191906000526020600020905b8154815290600101906020018083116108ee57829003601f168201915b505050505081565b60606002805461092290610c8f565b80601f016020809104026020016040519081016040528092919081815260200182805461094e90610c8f565b801561099b5780601f106109705761010080835404028352916020019161099b565b820191906000526020600020905b81548152906001019060200180831161097e57829003601f168201915b5050505050905090565b6060600080546109b490610c8f565b80601f01602080910402602001604051908101604052809291908181526020018280546109e090610c8f565b8015610a2d5780601f10610a0257610100808354040283529160200191610a2d565b820191906000526020600020905b815481529060010190602001808311610a1057829003601f168201915b5050505050905090565b60018054610a4490610c8f565b80601f0160208091040260200160405190810160405280929190818152602001828054610a7090610c8f565b8015610abd5780601f10610a9257610100808354040283529160200191610abd565b820191906000526020600020905b815481529060010190602001808311610aa057829003601f168201915b505050505081565b60008054610ad290610c8f565b80601f0160208091040260200160405190810160405280929190818152602001828054610afe90610c8f565b8015610b4b5780601f10610b2057610100808354040283529160200191610b4b565b820191906000526020600020905b815481529060010190602001808311610b2e57829003601f168201915b505050505081565b606060078054610b6290610c8f565b80601f0160208091040260200160405190810160405280929190818152602001828054610b8e90610c8f565b8015610bdb5780601f10610bb057610100808354040283529160200191610bdb565b820191906000526020600020905b815481529060010190602001808311610bbe57829003601f168201915b5050505050905090565b6000610bf082610c40565b610bfa8185610c4b565b9350610c0a818560208601610c5c565b610c1381610cf0565b840191505092915050565b60006020820190508181036000830152610c388184610be5565b905092915050565b600081519050919050565b600082825260208201905092915050565b60005b83811015610c7a578082015181840152602081019050610c5f565b83811115610c89576000848401525b50505050565b60006002820490506001821680610ca757607f821691505b60208210811415610cbb57610cba610cc1565b5b50919050565b7f4e487b7100000000000000000000000000000000000000000000000000000000600052602260045260246000fd5b6000601f19601f830116905091905056fea264697066735822122092b38570349c934faa18b29b28d8edc854a7bdb6a4b4dcf0a3d41d628844786664736f6c63430008070033",
  "linkReferences": {},
  "deployedLinkReferences": {}
}