{
  "_format": "hh-sol-artifact-1",
  "contractName": "SmartContractFactory2",
  "sourceName": "contracts/clientfactory2.sol",
  "abi": [
    {
      "anonymous": false,
      "inputs": [
        {
          "indexed": false,
          "internalType": "contract PolicySmartContract2",
          "name": "a",
          "type": "address"
        },
        {
          "indexed": false,
          "internalType": "string",
          "name": "newMessage",
          "type": "string"
        },
        {
          "indexed": false,
          "internalType": "string",
          "name": "policyID",
          "type": "string"
        },
        {
          "indexed": false,
          "internalType": "string",
          "name": "duration",
          "type": "string"
        },
        {
          "indexed": false,
          "internalType": "string",
          "name": "date_of_policy",
          "type": "string"
        },
        {
          "indexed": false,
          "internalType": "string",
          "name": "phone",
          "type": "string"
        },
        {
          "indexed": false,
          "internalType": "string",
          "name": "name",
          "type": "string"
        },
        {
          "indexed": false,
          "internalType": "string",
          "name": "price",
          "type": "string"
        },
        {
          "indexed": false,
          "internalType": "string",
          "name": "dateNTimeOfTxn",
          "type": "string"
        }
      ],
      "name": "policyID",
      "type": "event"
    },
    {
      "inputs": [
        {
          "internalType": "address",
          "name": "_address",
          "type": "address"
        }
      ],
      "name": "getClientInformation",
      "outputs": [
        {
          "internalType": "string",
          "name": "_newMessage",
          "type": "string"
        },
        {
          "internalType": "string",
          "name": "_policyID",
          "type": "string"
        },
        {
          "internalType": "string",
          "name": "_duration",
          "type": "string"
        },
        {
          "internalType": "string",
          "name": "_date_of_policy",
          "type": "string"
        },
        {
          "internalType": "string",
          "name": "_phone",
          "type": "string"
        },
        {
          "internalType": "string",
          "name": "_name",
          "type": "string"
        },
        {
          "internalType": "string",
          "name": "_price",
          "type": "string"
        },
        {
          "internalType": "string",
          "name": "_dateNTimeOfTxn",
          "type": "string"
        }
      ],
      "stateMutability": "view",
      "type": "function"
    },
    {
      "inputs": [
        {
          "internalType": "string",
          "name": "newMessage",
          "type": "string"
        },
        {
          "internalType": "string",
          "name": "_policyID",
          "type": "string"
        },
        {
          "internalType": "string",
          "name": "_duration",
          "type": "string"
        },
        {
          "internalType": "string",
          "name": "_date_of_policy",
          "type": "string"
        },
        {
          "internalType": "string",
          "name": "_phone",
          "type": "string"
        },
        {
          "internalType": "string",
          "name": "_name",
          "type": "string"
        },
        {
          "internalType": "string",
          "name": "_price",
          "type": "string"
        },
        {
          "internalType": "string",
          "name": "dateNTimeOfTxn",
          "type": "string"
        }
      ],
      "name": "update",
      "outputs": [
        {
          "internalType": "contract PolicySmartContract2",
          "name": "",
          "type": "address"
        }
      ],
      "stateMutability": "nonpayable",
      "type": "function"
    }
  ],
  "bytecode": "0x608060405234801561001057600080fd5b50612079806100206000396000f3fe60806040523480156200001157600080fd5b50600436106200003a5760003560e01c8063df1c5c7c146200003f578063ef8596e51462000075575b600080fd5b6200005d6004803603810190620000579190620007db565b620000b2565b6040516200006c9190620009ee565b60405180910390f35b6200009360048036038101906200008d919062000758565b620001d2565b604051620000a998979695949392919062000ae2565b60405180910390f35b60008888888888888888604051620000ca9062000637565b620000dd98979695949392919062000ae2565b604051809103906000f080158015620000fa573d6000803e3d6000fd5b506000806101000a81548173ffffffffffffffffffffffffffffffffffffffff021916908373ffffffffffffffffffffffffffffffffffffffff1602179055507f3fe78fbc98b2c514a8193117f6e6b1b2fb9cd7d899001db13a7f0f76d050118160008054906101000a900473ffffffffffffffffffffffffffffffffffffffff168a8a8a8a8a8a8a8a6040516200019b9998979695949392919062000a0b565b60405180910390a160008054906101000a900473ffffffffffffffffffffffffffffffffffffffff16905098975050505050505050565b60608060608060608060608060008990508073ffffffffffffffffffffffffffffffffffffffff1663c4382fa66040518163ffffffff1660e01b815260040160006040518083038186803b1580156200022a57600080fd5b505afa1580156200023f573d6000803e3d6000fd5b505050506040513d6000823e3d601f19601f820116820180604052508101906200026a91906200078a565b8173ffffffffffffffffffffffffffffffffffffffff166352ea67826040518163ffffffff1660e01b815260040160006040518083038186803b158015620002b157600080fd5b505afa158015620002c6573d6000803e3d6000fd5b505050506040513d6000823e3d601f19601f82011682018060405250810190620002f191906200078a565b8273ffffffffffffffffffffffffffffffffffffffff1663ad2e8c9b6040518163ffffffff1660e01b815260040160006040518083038186803b1580156200033857600080fd5b505afa1580156200034d573d6000803e3d6000fd5b505050506040513d6000823e3d601f19601f820116820180604052508101906200037891906200078a565b8373ffffffffffffffffffffffffffffffffffffffff166320bdd61d6040518163ffffffff1660e01b815260040160006040518083038186803b158015620003bf57600080fd5b505afa158015620003d4573d6000803e3d6000fd5b505050506040513d6000823e3d601f19601f82011682018060405250810190620003ff91906200078a565b8473ffffffffffffffffffffffffffffffffffffffff16638863bab06040518163ffffffff1660e01b815260040160006040518083038186803b1580156200044657600080fd5b505afa1580156200045b573d6000803e3d6000fd5b505050506040513d6000823e3d601f19601f820116820180604052508101906200048691906200078a565b8573ffffffffffffffffffffffffffffffffffffffff166317d7de7c6040518163ffffffff1660e01b815260040160006040518083038186803b158015620004cd57600080fd5b505afa158015620004e2573d6000803e3d6000fd5b505050506040513d6000823e3d601f19601f820116820180604052508101906200050d91906200078a565b8673ffffffffffffffffffffffffffffffffffffffff166398d5fdca6040518163ffffffff1660e01b815260040160006040518083038186803b1580156200055457600080fd5b505afa15801562000569573d6000803e3d6000fd5b505050506040513d6000823e3d601f19601f820116820180604052508101906200059491906200078a565b8773ffffffffffffffffffffffffffffffffffffffff1663f0d3c7226040518163ffffffff1660e01b815260040160006040518083038186803b158015620005db57600080fd5b505afa158015620005f0573d6000803e3d6000fd5b505050506040513d6000823e3d601f19601f820116820180604052508101906200061b91906200078a565b9850985098509850985098509850985050919395975091939597565b6112c78062000d7d83390190565b60006200065c620006568462000bd1565b62000ba8565b9050828152602081018484840111156200067b576200067a62000d42565b5b6200068884828562000c93565b509392505050565b6000620006a7620006a18462000bd1565b62000ba8565b905082815260208101848484011115620006c657620006c562000d42565b5b620006d384828562000ca2565b509392505050565b600081359050620006ec8162000d62565b92915050565b600082601f8301126200070a576200070962000d3d565b5b81356200071c84826020860162000645565b91505092915050565b600082601f8301126200073d576200073c62000d3d565b5b81516200074f84826020860162000690565b91505092915050565b60006020828403121562000771576200077062000d4c565b5b60006200078184828501620006db565b91505092915050565b600060208284031215620007a357620007a262000d4c565b5b600082015167ffffffffffffffff811115620007c457620007c362000d47565b5b620007d28482850162000725565b91505092915050565b600080600080600080600080610100898b031215620007ff57620007fe62000d4c565b5b600089013567ffffffffffffffff81111562000820576200081f62000d47565b5b6200082e8b828c01620006f2565b985050602089013567ffffffffffffffff81111562000852576200085162000d47565b5b620008608b828c01620006f2565b975050604089013567ffffffffffffffff81111562000884576200088362000d47565b5b620008928b828c01620006f2565b965050606089013567ffffffffffffffff811115620008b657620008b562000d47565b5b620008c48b828c01620006f2565b955050608089013567ffffffffffffffff811115620008e857620008e762000d47565b5b620008f68b828c01620006f2565b94505060a089013567ffffffffffffffff8111156200091a576200091962000d47565b5b620009288b828c01620006f2565b93505060c089013567ffffffffffffffff8111156200094c576200094b62000d47565b5b6200095a8b828c01620006f2565b92505060e089013567ffffffffffffffff8111156200097e576200097d62000d47565b5b6200098c8b828c01620006f2565b9150509295985092959890939650565b620009a78162000c57565b82525050565b6000620009ba8262000c07565b620009c6818562000c12565b9350620009d881856020860162000ca2565b620009e38162000d51565b840191505092915050565b600060208201905062000a0560008301846200099c565b92915050565b60006101208201905062000a23600083018c6200099c565b818103602083015262000a37818b620009ad565b9050818103604083015262000a4d818a620009ad565b9050818103606083015262000a638189620009ad565b9050818103608083015262000a798188620009ad565b905081810360a083015262000a8f8187620009ad565b905081810360c083015262000aa58186620009ad565b905081810360e083015262000abb8185620009ad565b905081810361010083015262000ad28184620009ad565b90509a9950505050505050505050565b600061010082019050818103600083015262000aff818b620009ad565b9050818103602083015262000b15818a620009ad565b9050818103604083015262000b2b8189620009ad565b9050818103606083015262000b418188620009ad565b9050818103608083015262000b578187620009ad565b905081810360a083015262000b6d8186620009ad565b905081810360c083015262000b838185620009ad565b905081810360e083015262000b998184620009ad565b90509998505050505050505050565b600062000bb462000bc7565b905062000bc2828262000cd8565b919050565b6000604051905090565b600067ffffffffffffffff82111562000bef5762000bee62000d0e565b5b62000bfa8262000d51565b9050602081019050919050565b600081519050919050565b600082825260208201905092915050565b600062000c308262000c37565b9050919050565b600073ffffffffffffffffffffffffffffffffffffffff82169050919050565b600062000c648262000c6b565b9050919050565b600062000c788262000c7f565b9050919050565b600062000c8c8262000c37565b9050919050565b82818337600083830152505050565b60005b8381101562000cc257808201518184015260208101905062000ca5565b8381111562000cd2576000848401525b50505050565b62000ce38262000d51565b810181811067ffffffffffffffff8211171562000d055762000d0462000d0e565b5b80604052505050565b7f4e487b7100000000000000000000000000000000000000000000000000000000600052604160045260246000fd5b600080fd5b600080fd5b600080fd5b600080fd5b6000601f19601f8301169050919050565b62000d6d8162000c23565b811462000d7957600080fd5b5056fe60806040523480156200001157600080fd5b50604051620012c7380380620012c783398181016040528101906200003791906200023b565b87600090805190602001906200004f9291906200010d565b508660019080519060200190620000689291906200010d565b508560029080519060200190620000819291906200010d565b5084600390805190602001906200009a9291906200010d565b508360049080519060200190620000b39291906200010d565b508260059080519060200190620000cc9291906200010d565b508160069080519060200190620000e59291906200010d565b508060079080519060200190620000fe9291906200010d565b50505050505050505062000580565b8280546200011b9062000491565b90600052602060002090601f0160209004810192826200013f57600085556200018b565b82601f106200015a57805160ff19168380011785556200018b565b828001600101855582156200018b579182015b828111156200018a5782518255916020019190600101906200016d565b5b5090506200019a91906200019e565b5090565b5b80821115620001b95760008160009055506001016200019f565b5090565b6000620001d4620001ce8462000425565b620003fc565b905082815260208101848484011115620001f357620001f262000560565b5b620002008482856200045b565b509392505050565b600082601f83011262000220576200021f6200055b565b5b815162000232848260208601620001bd565b91505092915050565b600080600080600080600080610100898b0312156200025f576200025e6200056a565b5b600089015167ffffffffffffffff81111562000280576200027f62000565565b5b6200028e8b828c0162000208565b985050602089015167ffffffffffffffff811115620002b257620002b162000565565b5b620002c08b828c0162000208565b975050604089015167ffffffffffffffff811115620002e457620002e362000565565b5b620002f28b828c0162000208565b965050606089015167ffffffffffffffff81111562000316576200031562000565565b5b620003248b828c0162000208565b955050608089015167ffffffffffffffff81111562000348576200034762000565565b5b620003568b828c0162000208565b94505060a089015167ffffffffffffffff8111156200037a576200037962000565565b5b620003888b828c0162000208565b93505060c089015167ffffffffffffffff811115620003ac57620003ab62000565565b5b620003ba8b828c0162000208565b92505060e089015167ffffffffffffffff811115620003de57620003dd62000565565b5b620003ec8b828c0162000208565b9150509295985092959890939650565b6000620004086200041b565b9050620004168282620004c7565b919050565b6000604051905090565b600067ffffffffffffffff8211156200044357620004426200052c565b5b6200044e826200056f565b9050602081019050919050565b60005b838110156200047b5780820151818401526020810190506200045e565b838111156200048b576000848401525b50505050565b60006002820490506001821680620004aa57607f821691505b60208210811415620004c157620004c0620004fd565b5b50919050565b620004d2826200056f565b810181811067ffffffffffffffff82111715620004f457620004f36200052c565b5b80604052505050565b7f4e487b7100000000000000000000000000000000000000000000000000000000600052602260045260246000fd5b7f4e487b7100000000000000000000000000000000000000000000000000000000600052604160045260246000fd5b600080fd5b600080fd5b600080fd5b600080fd5b6000601f19601f8301169050919050565b610d3780620005906000396000f3fe608060405234801561001057600080fd5b50600436106101005760003560e01c806398d5fdca11610097578063c4382fa611610066578063c4382fa61461026d578063c6cf634b1461028b578063e21f37ce146102a9578063f0d3c722146102c757610100565b806398d5fdca146101f5578063a035b1fe14610213578063aa3c542d14610231578063ad2e8c9b1461024f57610100565b806338fa5048116100d357806338fa50481461017d57806352ea67821461019b5780638863bab0146101b95780639284f497146101d757610100565b806306fdde03146101055780630fb5a6b41461012357806317d7de7c1461014157806320bdd61d1461015f575b600080fd5b61010d6102e5565b60405161011a9190610c1e565b60405180910390f35b61012b610373565b6040516101389190610c1e565b60405180910390f35b610149610401565b6040516101569190610c1e565b60405180910390f35b610167610493565b6040516101749190610c1e565b60405180910390f35b610185610525565b6040516101929190610c1e565b60405180910390f35b6101a36105b3565b6040516101b09190610c1e565b60405180910390f35b6101c1610645565b6040516101ce9190610c1e565b60405180910390f35b6101df6106d7565b6040516101ec9190610c1e565b60405180910390f35b6101fd610765565b60405161020a9190610c1e565b60405180910390f35b61021b6107f7565b6040516102289190610c1e565b60405180910390f35b610239610885565b6040516102469190610c1e565b60405180910390f35b610257610913565b6040516102649190610c1e565b60405180910390f35b6102756109a5565b6040516102829190610c1e565b60405180910390f35b610293610a37565b6040516102a09190610c1e565b60405180910390f35b6102b1610ac5565b6040516102be9190610c1e565b60405180910390f35b6102cf610b53565b6040516102dc9190610c1e565b60405180910390f35b600580546102f290610c8f565b80601f016020809104026020016040519081016040528092919081815260200182805461031e90610c8f565b801561036b5780601f106103405761010080835404028352916020019161036b565b820191906000526020600020905b81548152906001019060200180831161034e57829003601f168201915b505050505081565b6002805461038090610c8f565b80601f01602080910402602001604051908101604052809291908181526020018280546103ac90610c8f565b80156103f95780601f106103ce576101008083540402835291602001916103f9565b820191906000526020600020905b8154815290600101906020018083116103dc57829003601f168201915b505050505081565b60606005805461041090610c8f565b80601f016020809104026020016040519081016040528092919081815260200182805461043c90610c8f565b80156104895780601f1061045e57610100808354040283529160200191610489565b820191906000526020600020905b81548152906001019060200180831161046c57829003601f168201915b5050505050905090565b6060600380546104a290610c8f565b80601f01602080910402602001604051908101604052809291908181526020018280546104ce90610c8f565b801561051b5780601f106104f05761010080835404028352916020019161051b565b820191906000526020600020905b8154815290600101906020018083116104fe57829003601f168201915b5050505050905090565b6007805461053290610c8f565b80601f016020809104026020016040519081016040528092919081815260200182805461055e90610c8f565b80156105ab5780601f10610580576101008083540402835291602001916105ab565b820191906000526020600020905b81548152906001019060200180831161058e57829003601f168201915b505050505081565b6060600180546105c290610c8f565b80601f01602080910402602001604051908101604052809291908181526020018280546105ee90610c8f565b801561063b5780601f106106105761010080835404028352916020019161063b565b820191906000526020600020905b81548152906001019060200180831161061e57829003601f168201915b5050505050905090565b60606004805461065490610c8f565b80601f016020809104026020016040519081016040528092919081815260200182805461068090610c8f565b80156106cd5780601f106106a2576101008083540402835291602001916106cd565b820191906000526020600020905b8154815290600101906020018083116106b057829003601f168201915b5050505050905090565b600480546106e490610c8f565b80601f016020809104026020016040519081016040528092919081815260200182805461071090610c8f565b801561075d5780601f106107325761010080835404028352916020019161075d565b820191906000526020600020905b81548152906001019060200180831161074057829003601f168201915b505050505081565b60606006805461077490610c8f565b80601f01602080910402602001604051908101604052809291908181526020018280546107a090610c8f565b80156107ed5780601f106107c2576101008083540402835291602001916107ed565b820191906000526020600020905b8154815290600101906020018083116107d057829003601f168201915b5050505050905090565b6006805461080490610c8f565b80601f016020809104026020016040519081016040528092919081815260200182805461083090610c8f565b801561087d5780601f106108525761010080835404028352916020019161087d565b820191906000526020600020905b81548152906001019060200180831161086057829003601f168201915b505050505081565b6003805461089290610c8f565b80601f01602080910402602001604051908101604052809291908181526020018280546108be90610c8f565b801561090b5780601f106108e05761010080835404028352916020019161090b565b820191906000526020600020905b8154815290600101906020018083116108ee57829003601f168201915b505050505081565b60606002805461092290610c8f565b80601f016020809104026020016040519081016040528092919081815260200182805461094e90610c8f565b801561099b5780601f106109705761010080835404028352916020019161099b565b820191906000526020600020905b81548152906001019060200180831161097e57829003601f168201915b5050505050905090565b6060600080546109b490610c8f565b80601f01602080910402602001604051908101604052809291908181526020018280546109e090610c8f565b8015610a2d5780601f10610a0257610100808354040283529160200191610a2d565b820191906000526020600020905b815481529060010190602001808311610a1057829003601f168201915b5050505050905090565b60018054610a4490610c8f565b80601f0160208091040260200160405190810160405280929190818152602001828054610a7090610c8f565b8015610abd5780601f10610a9257610100808354040283529160200191610abd565b820191906000526020600020905b815481529060010190602001808311610aa057829003601f168201915b505050505081565b60008054610ad290610c8f565b80601f0160208091040260200160405190810160405280929190818152602001828054610afe90610c8f565b8015610b4b5780601f10610b2057610100808354040283529160200191610b4b565b820191906000526020600020905b815481529060010190602001808311610b2e57829003601f168201915b505050505081565b606060078054610b6290610c8f565b80601f0160208091040260200160405190810160405280929190818152602001828054610b8e90610c8f565b8015610bdb5780601f10610bb057610100808354040283529160200191610bdb565b820191906000526020600020905b815481529060010190602001808311610bbe57829003601f168201915b5050505050905090565b6000610bf082610c40565b610bfa8185610c4b565b9350610c0a818560208601610c5c565b610c1381610cf0565b840191505092915050565b60006020820190508181036000830152610c388184610be5565b905092915050565b600081519050919050565b600082825260208201905092915050565b60005b83811015610c7a578082015181840152602081019050610c5f565b83811115610c89576000848401525b50505050565b60006002820490506001821680610ca757607f821691505b60208210811415610cbb57610cba610cc1565b5b50919050565b7f4e487b7100000000000000000000000000000000000000000000000000000000600052602260045260246000fd5b6000601f19601f830116905091905056fea264697066735822122092b38570349c934faa18b29b28d8edc854a7bdb6a4b4dcf0a3d41d628844786664736f6c63430008070033a26469706673582212204a1b0cbcfc5708fed1e90bae1f1100fb6246b125dcd11d81d5842a041b6e5eb164736f6c63430008070033",
  "linkReferences": {},
  "deployedLinkReferences": {}
}